{
  "_format": "hh-sol-artifact-1",
  "contractName": "UserCovidManagement",
  "sourceName": "contracts/CovidData.sol",
  "abi": [
    {
      "anonymous": false,
      "inputs": [
        {
          "indexed": false,
          "internalType": "uint256",
          "name": "id",
          "type": "uint256"
        },
        {
          "indexed": false,
          "internalType": "string",
          "name": "idPasien",
          "type": "string"
        },
        {
          "indexed": false,
          "internalType": "string",
          "name": "hasilTes",
          "type": "string"
        },
        {
          "indexed": false,
          "internalType": "string",
          "name": "tanggalTes",
          "type": "string"
        },
        {
          "indexed": false,
          "internalType": "string",
          "name": "statusVaksinasi",
          "type": "string"
        },
        {
          "indexed": false,
          "internalType": "address",
          "name": "owner",
          "type": "address"
        }
      ],
      "name": "CovidDataAdded",
      "type": "event"
    },
    {
      "anonymous": false,
      "inputs": [
        {
          "indexed": false,
          "internalType": "uint256",
          "name": "id",
          "type": "uint256"
        }
      ],
      "name": "CovidDataDeleted",
      "type": "event"
    },
    {
      "anonymous": false,
      "inputs": [
        {
          "indexed": false,
          "internalType": "uint256",
          "name": "id",
          "type": "uint256"
        },
        {
          "indexed": false,
          "internalType": "string",
          "name": "idPasien",
          "type": "string"
        },
        {
          "indexed": false,
          "internalType": "string",
          "name": "hasilTes",
          "type": "string"
        },
        {
          "indexed": false,
          "internalType": "string",
          "name": "tanggalTes",
          "type": "string"
        },
        {
          "indexed": false,
          "internalType": "string",
          "name": "statusVaksinasi",
          "type": "string"
        }
      ],
      "name": "CovidDataUpdated",
      "type": "event"
    },
    {
      "anonymous": false,
      "inputs": [
        {
          "indexed": false,
          "internalType": "address",
          "name": "userAddress",
          "type": "address"
        },
        {
          "indexed": false,
          "internalType": "string",
          "name": "username",
          "type": "string"
        }
      ],
      "name": "UserRegistered",
      "type": "event"
    },
    {
      "inputs": [
        {
          "internalType": "string",
          "name": "_idPasien",
          "type": "string"
        },
        {
          "internalType": "string",
          "name": "_hasilTes",
          "type": "string"
        },
        {
          "internalType": "string",
          "name": "_tanggalTes",
          "type": "string"
        },
        {
          "internalType": "string",
          "name": "_statusVaksinasi",
          "type": "string"
        }
      ],
      "name": "addCovidData",
      "outputs": [],
      "stateMutability": "nonpayable",
      "type": "function"
    },
    {
      "inputs": [],
      "name": "covidDataCount",
      "outputs": [
        {
          "internalType": "uint256",
          "name": "",
          "type": "uint256"
        }
      ],
      "stateMutability": "view",
      "type": "function"
    },
    {
      "inputs": [
        {
          "internalType": "uint256",
          "name": "",
          "type": "uint256"
        }
      ],
      "name": "covidRecords",
      "outputs": [
        {
          "internalType": "uint256",
          "name": "id",
          "type": "uint256"
        },
        {
          "internalType": "string",
          "name": "idPasien",
          "type": "string"
        },
        {
          "internalType": "string",
          "name": "hasilTes",
          "type": "string"
        },
        {
          "internalType": "string",
          "name": "tanggalTes",
          "type": "string"
        },
        {
          "internalType": "string",
          "name": "statusVaksinasi",
          "type": "string"
        },
        {
          "internalType": "address",
          "name": "owner",
          "type": "address"
        }
      ],
      "stateMutability": "view",
      "type": "function"
    },
    {
      "inputs": [
        {
          "internalType": "uint256",
          "name": "_id",
          "type": "uint256"
        }
      ],
      "name": "deleteCovidData",
      "outputs": [],
      "stateMutability": "nonpayable",
      "type": "function"
    },
    {
      "inputs": [],
      "name": "getAllCovidData",
      "outputs": [
        {
          "components": [
            {
              "internalType": "uint256",
              "name": "id",
              "type": "uint256"
            },
            {
              "internalType": "string",
              "name": "idPasien",
              "type": "string"
            },
            {
              "internalType": "string",
              "name": "hasilTes",
              "type": "string"
            },
            {
              "internalType": "string",
              "name": "tanggalTes",
              "type": "string"
            },
            {
              "internalType": "string",
              "name": "statusVaksinasi",
              "type": "string"
            },
            {
              "internalType": "address",
              "name": "owner",
              "type": "address"
            }
          ],
          "internalType": "struct UserCovidManagement.CovidData[]",
          "name": "",
          "type": "tuple[]"
        }
      ],
      "stateMutability": "view",
      "type": "function"
    },
    {
      "inputs": [
        {
          "internalType": "string",
          "name": "_idPasien",
          "type": "string"
        }
      ],
      "name": "getCovidDataByIdPasien",
      "outputs": [
        {
          "components": [
            {
              "internalType": "uint256",
              "name": "id",
              "type": "uint256"
            },
            {
              "internalType": "string",
              "name": "idPasien",
              "type": "string"
            },
            {
              "internalType": "string",
              "name": "hasilTes",
              "type": "string"
            },
            {
              "internalType": "string",
              "name": "tanggalTes",
              "type": "string"
            },
            {
              "internalType": "string",
              "name": "statusVaksinasi",
              "type": "string"
            },
            {
              "internalType": "address",
              "name": "owner",
              "type": "address"
            }
          ],
          "internalType": "struct UserCovidManagement.CovidData",
          "name": "",
          "type": "tuple"
        }
      ],
      "stateMutability": "view",
      "type": "function"
    },
    {
      "inputs": [
        {
          "internalType": "address",
          "name": "_user",
          "type": "address"
        }
      ],
      "name": "isUserRegistered",
      "outputs": [
        {
          "internalType": "bool",
          "name": "",
          "type": "bool"
        }
      ],
      "stateMutability": "view",
      "type": "function"
    },
    {
      "inputs": [
        {
          "internalType": "string",
          "name": "_username",
          "type": "string"
        }
      ],
      "name": "registerUser",
      "outputs": [],
      "stateMutability": "nonpayable",
      "type": "function"
    },
    {
      "inputs": [
        {
          "internalType": "uint256",
          "name": "_id",
          "type": "uint256"
        },
        {
          "internalType": "string",
          "name": "_idPasien",
          "type": "string"
        },
        {
          "internalType": "string",
          "name": "_hasilTes",
          "type": "string"
        },
        {
          "internalType": "string",
          "name": "_tanggalTes",
          "type": "string"
        },
        {
          "internalType": "string",
          "name": "_statusVaksinasi",
          "type": "string"
        }
      ],
      "name": "updateCovidData",
      "outputs": [],
      "stateMutability": "nonpayable",
      "type": "function"
    },
    {
      "inputs": [
        {
          "internalType": "address",
          "name": "",
          "type": "address"
        }
      ],
      "name": "users",
      "outputs": [
        {
          "internalType": "string",
          "name": "username",
          "type": "string"
        },
        {
          "internalType": "address",
          "name": "userAddress",
          "type": "address"
        },
        {
          "internalType": "bool",
          "name": "isRegistered",
          "type": "bool"
        }
      ],
      "stateMutability": "view",
      "type": "function"
    }
  ],
  "bytecode": "0x6080604052348015600f57600080fd5b506124c28061001f6000396000f3fe608060405234801561001057600080fd5b506004361061009e5760003560e01c8063704f1b9411610066578063704f1b941461016057806394d006b11461017c578063a87430ba14610198578063ea7f4ae4146101ca578063fc0e8335146101e65761009e565b806313e5e0c6146100a3578063163f7522146100bf57806360c2818f146100ef578063623c59571461010d578063678f32b114610142575b600080fd5b6100bd60048036038101906100b89190611594565b610216565b005b6100d960048036038101906100d491906116c9565b61040b565b6040516100e69190611711565b60405180910390f35b6100f7610463565b6040516101049190611933565b60405180910390f35b61012760048036038101906101229190611981565b610825565b60405161013996959493929190611a16565b60405180910390f35b61014a610aa1565b6040516101579190611a93565b60405180910390f35b61017a60048036038101906101759190611aae565b610aa7565b005b61019660048036038101906101919190611981565b610c64565b005b6101b260048036038101906101ad91906116c9565b610dc7565b6040516101c193929190611af7565b60405180910390f35b6101e460048036038101906101df9190611b35565b610ea6565b005b61020060048036038101906101fb9190611aae565b610fef565b60405161020d9190611cbe565b60405180910390f35b6000803373ffffffffffffffffffffffffffffffffffffffff1673ffffffffffffffffffffffffffffffffffffffff16815260200190815260200160002060010160149054906101000a900460ff166102a4576040517f08c379a000000000000000000000000000000000000000000000000000000000815260040161029b90611d2c565b60405180910390fd5b600260008154809291906102b790611d7b565b91905055506040518060c0016040528060025481526020018581526020018481526020018381526020018281526020013373ffffffffffffffffffffffffffffffffffffffff168152506001600060025481526020019081526020016000206000820151816000015560208201518160010190816103359190611fcf565b50604082015181600201908161034b9190611fcf565b5060608201518160030190816103619190611fcf565b5060808201518160040190816103779190611fcf565b5060a08201518160050160006101000a81548173ffffffffffffffffffffffffffffffffffffffff021916908373ffffffffffffffffffffffffffffffffffffffff1602179055509050507f404e3b87fe61252e80f01532917a79d3b6acf9a246b58e40ae89b70ddd13d4ee60025485858585336040516103fd96959493929190611a16565b60405180910390a150505050565b60008060008373ffffffffffffffffffffffffffffffffffffffff1673ffffffffffffffffffffffffffffffffffffffff16815260200190815260200160002060010160149054906101000a900460ff169050919050565b60606000600254116104aa576040517f08c379a00000000000000000000000000000000000000000000000000000000081526004016104a1906120ed565b60405180910390fd5b600060025467ffffffffffffffff8111156104c8576104c7611469565b5b60405190808252806020026020018201604052801561050157816020015b6104ee611391565b8152602001906001900390816104e65790505b5090506000600190505b600254811161081d576000600160008381526020019081526020016000206040518060c00160405290816000820154815260200160018201805461054e90611df2565b80601f016020809104026020016040519081016040528092919081815260200182805461057a90611df2565b80156105c75780601f1061059c576101008083540402835291602001916105c7565b820191906000526020600020905b8154815290600101906020018083116105aa57829003601f168201915b505050505081526020016002820180546105e090611df2565b80601f016020809104026020016040519081016040528092919081815260200182805461060c90611df2565b80156106595780601f1061062e57610100808354040283529160200191610659565b820191906000526020600020905b81548152906001019060200180831161063c57829003601f168201915b5050505050815260200160038201805461067290611df2565b80601f016020809104026020016040519081016040528092919081815260200182805461069e90611df2565b80156106eb5780601f106106c0576101008083540402835291602001916106eb565b820191906000526020600020905b8154815290600101906020018083116106ce57829003601f168201915b5050505050815260200160048201805461070490611df2565b80601f016020809104026020016040519081016040528092919081815260200182805461073090611df2565b801561077d5780601f106107525761010080835404028352916020019161077d565b820191906000526020600020905b81548152906001019060200180831161076057829003601f168201915b505050505081526020016005820160009054906101000a900473ffffffffffffffffffffffffffffffffffffffff1673ffffffffffffffffffffffffffffffffffffffff1673ffffffffffffffffffffffffffffffffffffffff1681525050905080836001846107ed919061210d565b815181106107fe576107fd612141565b5b602002602001018190525050808061081590611d7b565b91505061050b565b508091505090565b600160205280600052604060002060009150905080600001549080600101805461084e90611df2565b80601f016020809104026020016040519081016040528092919081815260200182805461087a90611df2565b80156108c75780601f1061089c576101008083540402835291602001916108c7565b820191906000526020600020905b8154815290600101906020018083116108aa57829003601f168201915b5050505050908060020180546108dc90611df2565b80601f016020809104026020016040519081016040528092919081815260200182805461090890611df2565b80156109555780601f1061092a57610100808354040283529160200191610955565b820191906000526020600020905b81548152906001019060200180831161093857829003601f168201915b50505050509080600301805461096a90611df2565b80601f016020809104026020016040519081016040528092919081815260200182805461099690611df2565b80156109e35780601f106109b8576101008083540402835291602001916109e3565b820191906000526020600020905b8154815290600101906020018083116109c657829003601f168201915b5050505050908060040180546109f890611df2565b80601f0160208091040260200160405190810160405280929190818152602001828054610a2490611df2565b8015610a715780601f10610a4657610100808354040283529160200191610a71565b820191906000526020600020905b815481529060010190602001808311610a5457829003601f168201915b5050505050908060050160009054906101000a900473ffffffffffffffffffffffffffffffffffffffff16905086565b60025481565b6000803373ffffffffffffffffffffffffffffffffffffffff1673ffffffffffffffffffffffffffffffffffffffff16815260200190815260200160002060010160149054906101000a900460ff1615610b36576040517f08c379a0000000000000000000000000000000000000000000000000000000008152600401610b2d906121bc565b60405180910390fd5b60405180606001604052808281526020013373ffffffffffffffffffffffffffffffffffffffff168152602001600115158152506000803373ffffffffffffffffffffffffffffffffffffffff1673ffffffffffffffffffffffffffffffffffffffff1681526020019081526020016000206000820151816000019081610bbd9190611fcf565b5060208201518160010160006101000a81548173ffffffffffffffffffffffffffffffffffffffff021916908373ffffffffffffffffffffffffffffffffffffffff16021790555060408201518160010160146101000a81548160ff0219169083151502179055509050507f48cac28ad4dc618e15f4c2dd5e97751182f166de97b25618318b2112aa951a2f3382604051610c599291906121dc565b60405180910390a150565b3373ffffffffffffffffffffffffffffffffffffffff166001600083815260200190815260200160002060050160009054906101000a900473ffffffffffffffffffffffffffffffffffffffff1673ffffffffffffffffffffffffffffffffffffffff1614610d08576040517f08c379a0000000000000000000000000000000000000000000000000000000008152600401610cff9061227e565b60405180910390fd5b60016000828152602001908152602001600020600080820160009055600182016000610d3491906113dd565b600282016000610d4491906113dd565b600382016000610d5491906113dd565b600482016000610d6491906113dd565b6005820160006101000a81549073ffffffffffffffffffffffffffffffffffffffff021916905550507f5c393fdd485ad16b915990286edd83ca48c9d671fbf803f840ffb2eed5d94ed281604051610dbc9190611a93565b60405180910390a150565b6000602052806000526040600020600091509050806000018054610dea90611df2565b80601f0160208091040260200160405190810160405280929190818152602001828054610e1690611df2565b8015610e635780601f10610e3857610100808354040283529160200191610e63565b820191906000526020600020905b815481529060010190602001808311610e4657829003601f168201915b5050505050908060010160009054906101000a900473ffffffffffffffffffffffffffffffffffffffff16908060010160149054906101000a900460ff16905083565b3373ffffffffffffffffffffffffffffffffffffffff166001600087815260200190815260200160002060050160009054906101000a900473ffffffffffffffffffffffffffffffffffffffff1673ffffffffffffffffffffffffffffffffffffffff1614610f4a576040517f08c379a0000000000000000000000000000000000000000000000000000000008152600401610f419061227e565b60405180910390fd5b600060016000878152602001908152602001600020905084816001019081610f729190611fcf565b5083816002019081610f849190611fcf565b5082816003019081610f969190611fcf565b5081816004019081610fa89190611fcf565b507eeb0950191abf3912528b7457b5832ab229a1c76f7635dce72742d4ac1e88008686868686604051610fdf95949392919061229e565b60405180910390a1505050505050565b610ff7611391565b6000600190505b600254811161135057826040516020016110189190612349565b604051602081830303815290604052805190602001206001600083815260200190815260200160002060010160405160200161105491906123e3565b604051602081830303815290604052805190602001200361133d57600160008281526020019081526020016000206040518060c0016040529081600082015481526020016001820180546110a790611df2565b80601f01602080910402602001604051908101604052809291908181526020018280546110d390611df2565b80156111205780601f106110f557610100808354040283529160200191611120565b820191906000526020600020905b81548152906001019060200180831161110357829003601f168201915b5050505050815260200160028201805461113990611df2565b80601f016020809104026020016040519081016040528092919081815260200182805461116590611df2565b80156111b25780601f10611187576101008083540402835291602001916111b2565b820191906000526020600020905b81548152906001019060200180831161119557829003601f168201915b505050505081526020016003820180546111cb90611df2565b80601f01602080910402602001604051908101604052809291908181526020018280546111f790611df2565b80156112445780601f1061121957610100808354040283529160200191611244565b820191906000526020600020905b81548152906001019060200180831161122757829003601f168201915b5050505050815260200160048201805461125d90611df2565b80601f016020809104026020016040519081016040528092919081815260200182805461128990611df2565b80156112d65780601f106112ab576101008083540402835291602001916112d6565b820191906000526020600020905b8154815290600101906020018083116112b957829003601f168201915b505050505081526020016005820160009054906101000a900473ffffffffffffffffffffffffffffffffffffffff1673ffffffffffffffffffffffffffffffffffffffff1673ffffffffffffffffffffffffffffffffffffffff168152505091505061138c565b808061134890611d7b565b915050610ffe565b506040517f08c379a00000000000000000000000000000000000000000000000000000000081526004016113839061246c565b60405180910390fd5b919050565b6040518060c001604052806000815260200160608152602001606081526020016060815260200160608152602001600073ffffffffffffffffffffffffffffffffffffffff1681525090565b5080546113e990611df2565b6000825580601f106113fb575061141a565b601f016020900490600052602060002090810190611419919061141d565b5b50565b5b8082111561143657600081600090555060010161141e565b5090565b6000604051905090565b600080fd5b600080fd5b600080fd5b600080fd5b6000601f19601f8301169050919050565b7f4e487b7100000000000000000000000000000000000000000000000000000000600052604160045260246000fd5b6114a182611458565b810181811067ffffffffffffffff821117156114c0576114bf611469565b5b80604052505050565b60006114d361143a565b90506114df8282611498565b919050565b600067ffffffffffffffff8211156114ff576114fe611469565b5b61150882611458565b9050602081019050919050565b82818337600083830152505050565b6000611537611532846114e4565b6114c9565b90508281526020810184848401111561155357611552611453565b5b61155e848285611515565b509392505050565b600082601f83011261157b5761157a61144e565b5b813561158b848260208601611524565b91505092915050565b600080600080608085870312156115ae576115ad611444565b5b600085013567ffffffffffffffff8111156115cc576115cb611449565b5b6115d887828801611566565b945050602085013567ffffffffffffffff8111156115f9576115f8611449565b5b61160587828801611566565b935050604085013567ffffffffffffffff81111561162657611625611449565b5b61163287828801611566565b925050606085013567ffffffffffffffff81111561165357611652611449565b5b61165f87828801611566565b91505092959194509250565b600073ffffffffffffffffffffffffffffffffffffffff82169050919050565b60006116968261166b565b9050919050565b6116a68161168b565b81146116b157600080fd5b50565b6000813590506116c38161169d565b92915050565b6000602082840312156116df576116de611444565b5b60006116ed848285016116b4565b91505092915050565b60008115159050919050565b61170b816116f6565b82525050565b60006020820190506117266000830184611702565b92915050565b600081519050919050565b600082825260208201905092915050565b6000819050602082019050919050565b6000819050919050565b61176b81611758565b82525050565b600081519050919050565b600082825260208201905092915050565b60005b838110156117ab578082015181840152602081019050611790565b60008484015250505050565b60006117c282611771565b6117cc818561177c565b93506117dc81856020860161178d565b6117e581611458565b840191505092915050565b6117f98161168b565b82525050565b600060c0830160008301516118176000860182611762565b506020830151848203602086015261182f82826117b7565b9150506040830151848203604086015261184982826117b7565b9150506060830151848203606086015261186382826117b7565b9150506080830151848203608086015261187d82826117b7565b91505060a083015161189260a08601826117f0565b508091505092915050565b60006118a983836117ff565b905092915050565b6000602082019050919050565b60006118c98261172c565b6118d38185611737565b9350836020820285016118e585611748565b8060005b858110156119215784840389528151611902858261189d565b945061190d836118b1565b925060208a019950506001810190506118e9565b50829750879550505050505092915050565b6000602082019050818103600083015261194d81846118be565b905092915050565b61195e81611758565b811461196957600080fd5b50565b60008135905061197b81611955565b92915050565b60006020828403121561199757611996611444565b5b60006119a58482850161196c565b91505092915050565b6119b781611758565b82525050565b600082825260208201905092915050565b60006119d982611771565b6119e381856119bd565b93506119f381856020860161178d565b6119fc81611458565b840191505092915050565b611a108161168b565b82525050565b600060c082019050611a2b60008301896119ae565b8181036020830152611a3d81886119ce565b90508181036040830152611a5181876119ce565b90508181036060830152611a6581866119ce565b90508181036080830152611a7981856119ce565b9050611a8860a0830184611a07565b979650505050505050565b6000602082019050611aa860008301846119ae565b92915050565b600060208284031215611ac457611ac3611444565b5b600082013567ffffffffffffffff811115611ae257611ae1611449565b5b611aee84828501611566565b91505092915050565b60006060820190508181036000830152611b1181866119ce565b9050611b206020830185611a07565b611b2d6040830184611702565b949350505050565b600080600080600060a08688031215611b5157611b50611444565b5b6000611b5f8882890161196c565b955050602086013567ffffffffffffffff811115611b8057611b7f611449565b5b611b8c88828901611566565b945050604086013567ffffffffffffffff811115611bad57611bac611449565b5b611bb988828901611566565b935050606086013567ffffffffffffffff811115611bda57611bd9611449565b5b611be688828901611566565b925050608086013567ffffffffffffffff811115611c0757611c06611449565b5b611c1388828901611566565b9150509295509295909350565b600060c083016000830151611c386000860182611762565b5060208301518482036020860152611c5082826117b7565b91505060408301518482036040860152611c6a82826117b7565b91505060608301518482036060860152611c8482826117b7565b91505060808301518482036080860152611c9e82826117b7565b91505060a0830151611cb360a08601826117f0565b508091505092915050565b60006020820190508181036000830152611cd88184611c20565b905092915050565b7f55736572206e6f74207265676973746572656400000000000000000000000000600082015250565b6000611d166013836119bd565b9150611d2182611ce0565b602082019050919050565b60006020820190508181036000830152611d4581611d09565b9050919050565b7f4e487b7100000000000000000000000000000000000000000000000000000000600052601160045260246000fd5b6000611d8682611758565b91507fffffffffffffffffffffffffffffffffffffffffffffffffffffffffffffffff8203611db857611db7611d4c565b5b600182019050919050565b7f4e487b7100000000000000000000000000000000000000000000000000000000600052602260045260246000fd5b60006002820490506001821680611e0a57607f821691505b602082108103611e1d57611e1c611dc3565b5b50919050565b60008190508160005260206000209050919050565b60006020601f8301049050919050565b600082821b905092915050565b600060088302611e857fffffffffffffffffffffffffffffffffffffffffffffffffffffffffffffffff82611e48565b611e8f8683611e48565b95508019841693508086168417925050509392505050565b6000819050919050565b6000611ecc611ec7611ec284611758565b611ea7565b611758565b9050919050565b6000819050919050565b611ee683611eb1565b611efa611ef282611ed3565b848454611e55565b825550505050565b600090565b611f0f611f02565b611f1a818484611edd565b505050565b5b81811015611f3e57611f33600082611f07565b600181019050611f20565b5050565b601f821115611f8357611f5481611e23565b611f5d84611e38565b81016020851015611f6c578190505b611f80611f7885611e38565b830182611f1f565b50505b505050565b600082821c905092915050565b6000611fa660001984600802611f88565b1980831691505092915050565b6000611fbf8383611f95565b9150826002028217905092915050565b611fd882611771565b67ffffffffffffffff811115611ff157611ff0611469565b5b611ffb8254611df2565b612006828285611f42565b600060209050601f8311600181146120395760008415612027578287015190505b6120318582611fb3565b865550612099565b601f19841661204786611e23565b60005b8281101561206f5784890151825560018201915060208501945060208101905061204a565b8683101561208c5784890151612088601f891682611f95565b8355505b6001600288020188555050505b505050505050565b7f4e6f206461746120617661696c61626c652e0000000000000000000000000000600082015250565b60006120d76012836119bd565b91506120e2826120a1565b602082019050919050565b60006020820190508181036000830152612106816120ca565b9050919050565b600061211882611758565b915061212383611758565b925082820390508181111561213b5761213a611d4c565b5b92915050565b7f4e487b7100000000000000000000000000000000000000000000000000000000600052603260045260246000fd5b7f5573657220616c72656164792072656769737465726564000000000000000000600082015250565b60006121a66017836119bd565b91506121b182612170565b602082019050919050565b600060208201905081810360008301526121d581612199565b9050919050565b60006040820190506121f16000830185611a07565b818103602083015261220381846119ce565b90509392505050565b7f596f7520617265206e6f7420746865206f776e6572206f66207468697320646160008201527f7461000000000000000000000000000000000000000000000000000000000000602082015250565b60006122686022836119bd565b91506122738261220c565b604082019050919050565b600060208201905081810360008301526122978161225b565b9050919050565b600060a0820190506122b360008301886119ae565b81810360208301526122c581876119ce565b905081810360408301526122d981866119ce565b905081810360608301526122ed81856119ce565b9050818103608083015261230181846119ce565b90509695505050505050565b600081905092915050565b600061232382611771565b61232d818561230d565b935061233d81856020860161178d565b80840191505092915050565b60006123558284612318565b915081905092915050565b6000815461236d81611df2565b612377818661230d565b9450600182166000811461239257600181146123a7576123da565b60ff19831686528115158202860193506123da565b6123b085611e23565b60005b838110156123d2578154818901526001820191506020810190506123b3565b838801955050505b50505092915050565b60006123ef8284612360565b915081905092915050565b7f44617461206e6f7420666f756e6420666f722074686520676976656e2069645060008201527f617369656e000000000000000000000000000000000000000000000000000000602082015250565b60006124566025836119bd565b9150612461826123fa565b604082019050919050565b6000602082019050818103600083015261248581612449565b905091905056fea2646970667358221220e74ceb659777c5ebde8d8543f6669f510df1691b09c0ac90cb709a34ce56802c64736f6c634300081c0033",
  "linkReferences": {},
  "deployedLinkReferences": {}
}